:1000000019C033C032C031C030C02FC02EC02DC087
:100010002CC02BC02AC029C028C027C026C025C09C
:1000200024C023C022C021C020C01FC01EC01DC0CC
:100030001CC01BC011241FBECFEFD4E0DEBFCDBF5C
:1000400011E0A0E0B1E0E0E9F4E002C005900D921B
:10005000A031B107D9F721E0A0E1B1E001C01D92C4
:10006000A932B207E1F702D011C2CACF09D031D10B
:100070008CE072D178948AB18C618AB9DFD0FECFDE
:1000800018B888B1856188B984B1866084B9E0E820
:10009000F0E08081806880838081806280838081BD
:1000A00081608083E1E8F0E08081886080838081E6
:1000B000816080830895DF92EF92FF920F931F93E8
:1000C000CF93DF9380E1E82E81E0F82E0EE111E07E
:1000D000C1E0D8E59FE4D92E8C2F31D1F70181936F
:1000E0007F01F801882311F0D08201C0D083CF5F57
:1000F0000F5F1F4FC93081F7DF91CF911F910F9193
:10010000FF90EF90DF900895CF93DF93A0E1B1E0EF
:10011000E0E0F1E060E070E080E090E02D9130E020
:10012000C191D1912C9FA0012D9F500D3C9F500D4E
:100130001124840F951F620F731F21E0E031F20735
:1001400069F710921901109218016115710589F46F
:1001500080912701909128018C3F2FEF92077CF42A
:1001600082EE9FEF90931D0180931C0181E090E04F
:1001700010C032D170931D0160931C0113C005970C
:100180006CF08EE190E090931D0180931C0182E061
:1001900090E090931B0180931A0104C010921D01FE
:1001A00010921C0120911A0130911B0180911C01B9
:1001B00090911D012130310541F41816190654F0B3
:1001C00010921B0110921A0105C02230310511F462
:1001D00097FFF6CF8E319105B1F45C985A9A5B9AED
:1001E000109210011092110110921201109213013D
:1001F000109214011092150110921601109217011D
:10020000DF91CF9108954E9619F45A985C9AE7CFF2
:100210005B985A9A5C9AE4CF80911C0190911D01E1
:10022000009721F0909328018093270125E0AC01ED
:10023000249FC001259F900D11240895CF93DF9333
:10024000CDB7DEB764970FB6F894DEBF0FBECDBF53
:1002500032DF5ADFE1DF2091180130911901232BA1
:10026000F9F426E930E097FF08C030938900209325
:1002700088009C012A563F4F09C0009761F0A901F0
:10028000481B590B509389004093880030938B0092
:1002900020938A000DC03093890020938800F6CF08
:1002A000109289001092880010928B0010928A00A0
:1002B0004AE0BE016F5F7F4FB6D0CE01019677D086
:1002C00064960FB6F894DEBF0FBECDBFDF91CF911D
:1002D00008958AB18F718AB98BB1806E8BB984B160
:1002E0008E7084B985B1816F85B9239A2B9A089550
:1002F00063B183B153B143B139B129B199B173B18C
:10030000807186958695869565FB662760F9862BB4
:10031000507452955F70852B407842954F70842BB6
:1003200030723695832B20742695822B9078969583
:10033000892B90E8799F90011124822B0895CF9307
:10034000C82FD6DFC15021E030E001C0220FCA958E
:10035000EAF78223CF9108951092C5008093C400DC
:1003600088E18093C1008EE08093C200089590914F
:10037000C00095FFFCCF8093C60008958091C00017
:1003800087FFFCCF8091C60008950F931F93CF93F2
:100390008C01C0E0F801EC0FF11D8081882319F079
:1003A000E6DFCF5FF7CFCF911F910F9108950F93A5
:1003B0001F93CF938C01C0E0F801EC0FF11D8081F9
:1003C000882319F0D4DFCF5FF7CF8DE0D0DF8AE04C
:1003D000CF911F910F91CBCF97FB072E16F400946E
:1003E00006D077FD08D00BD007FC05D03EF49095E1
:1003F00081959F4F0895709561957F4F0895AA1B31
:10040000BB1B51E107C0AA1FBB1FA617B70710F0FF
:10041000A61BB70B881F991F5A95A9F78095909531
:10042000BC01CD010895BB274A3031F4992322F451
:10043000BDE2909581959F4F01C0BB27FB015527D9
:10044000AA27880F991FAA1FA41710F0A41B839531
:100450005051B9F7A05DAA3308F0A95DA1930097A8
:1004600079F7B111B1931192CB0100C0DC01FC010D
:10047000672F71917723E1F7329704C07C916D93D8
:1004800070836291AE17BF07C8F30895F894FFCF49
:10049000E2FFECFFF6FFFBFF05000A0014001E0060
:00000001FF
