:1000000019C033C032C031C030C02FC02EC02DC087
:100010002CC02BC02AC029C028C027C026C025C09C
:1000200024C023C022C021C020C01FC01EC01DC0CC
:100030001CC01BC011241FBECFEFD4E0DEBFCDBF5C
:1000400011E0A0E0B1E0ECE4F5E002C005900D9213
:10005000A031B107D9F711E0A0E1B1E001C01D92D4
:10006000A932B107E1F702D06FC2CACF09D061D17E
:100070008CE0CAD178948AB18C618AB9FAD0FECF6B
:1000800018B888B1856188B984B1866084B9E0E820
:10009000F0E08081806880838081806280838081BD
:1000A00081608083E1E8F0E08081886080838081E6
:1000B0008160808308950F931F93CF93DF93C6E1F0
:1000C000D1E0A0E0B1E0FE0140E050E060E070E08F
:1000D000819190E02D913D918901809F9001819FB8
:1000E000300D909F300D1124420F531F680F791F60
:1000F00011E0EE31F10761F76115710569F41092B5
:1001000015011092140180912701909128012FEF81
:100110008C3F920764F014C01092150110921401E4
:10012000CA01BCD170931101609310011CC088ED0D
:100130009FEF909311018093100181E090E00AC03D
:1001400005976CF088E290E0909311018093100184
:1001500082E090E0909313018093120104C010920A
:1001600011011092100120911201309113012130E0
:10017000310539F48091100190911101181619067A
:100180004CF42230310551F480911001909111010D
:1001900097FD04C01092130110921201809110017A
:1001A000909111018832910519F45C985A9A05C012
:1001B000885D9F4F21F45A985C9A5B9A03C05B98C4
:1001C0005A9A5C9A199211E0CE31D107D9F7DF9192
:1001D000CF911F910F9108954091100150911101FD
:1001E00080912701909128014115510521F05093EC
:1001F0002801409327019A01281B390BC90174E09B
:10020000220F331F7A95E1F7281B390BCA01880F9B
:10021000991F880F991F840F951F280F391FC90137
:100220000895EF92FF920F931F93CF93DF930EE108
:1002300011E0C1E0D0E0F8E5EF2EEFE4FE2E8C2FC8
:10024000D2D0FE01EB5EFE4F8083882319F0F801C7
:10025000F08202C0F801E08221960F5F1F4FC93083
:10026000D10569F7DF91CF911F910F91FF90EF902A
:1002700008950F931F93DF93CF93CDB7DEB76497A5
:100280000FB6F894DEBF0FBECDBFCBDF14DFA4DF07
:10029000AC018091140190911501892B69F557FFEC
:1002A0000FC08FEF90E090938900809388004150B9
:1002B0005F4F50938B0040938A004F5F504024C0A3
:1002C0004115510571F02FEF30E0C901841B950BEA
:1002D000909389008093880030938B0020938A004C
:1002E00013C08FEF90E090938900809388009093E3
:1002F0008B0080938A0008C01092890010928800B9
:1003000010928B0010928A00CA018E010F5F1F4F5E
:10031000B8014AE050E0E9D0C801A1D064960FB618
:10032000F894DEBF0FBECDBFCF91DF911F910F912B
:1003300008958AB18F718AB98BB1806E8BB984B1FF
:100340008E7084B985B1816F85B9239A2B9A0895EF
:10035000EF92FF920F931F93E3B023B143B163B1C8
:10036000E9B1A9B109B183B130E020713070F3E097
:1003700035952795FA95E1F750E04074507074E098
:10038000559547957A95E1F7242B8795882787958A
:10039000822B70E06078707054E0759567955A957F
:1003A000E1F7862BF0E0E072F070F595E7958E2B83
:1003B000B0E0A074B070B595A7958A2B10E00078D6
:1003C000107015950795802BFF2490E2E922FF24F9
:1003D00095E0F594E7949A95E1F78E291F910F9196
:1003E000FF90EF9008950F931F93082FB1DF90E0D7
:1003F00010E00150104002C0959587950A95E2F7EC
:1004000081701F910F9108951092C5008093C400D0
:1004100088E18093C1008EE08093C2000895982FF8
:100420008091C00085FFFCCF9093C6000895809115
:10043000C00087FFFCCF8091C6000895AC0120E08A
:1004400007C08091C00085FFFCCFE093C6002F5FFE
:10045000FA01E20FF11DE081EE2399F70895AC0156
:1004600020E007C08091C00085FFFCCFE093C6006C
:100470002F5FFA01E20FF11DE081EE2399F78091E1
:10048000C00085FFFCCF8DE08093C6008091C00046
:1004900085FFFCCF8AE08093C600089597FB092E64
:1004A00007260AD077FD04D00CD006D000201AF41D
:1004B000709561957F4F0895F6F7909581959F4FC0
:1004C0000895AA1BBB1B51E107C0AA1FBB1FA6179B
:1004D000B70710F0A61BB70B881F991F5A95A9F7ED
:1004E00080959095BC01CD010895FB019F01E89492
:1004F0004230BCF04532ACF44A3029F497FB1EF48C
:10050000909581959F4F642F7727DBDF805D8A333D
:100510000CF0895D8193CB010097A9F716F45DE299
:1005200051931082C90100C0DC01FC01672F719159
:100530007723E1F7329704C07C916D9370836291C9
:0C054000AE17BF07C8F30895F894FFCF72
:10054C00E2FFE7FFF1FFFBFF05000F0019001E00A3
:00000001FF
