:1000000019C020C01FC01EC01DC01CC01BC01AC00C
:1000100019C018C017C016C015C014C013C012C034
:1000200011C010C00FC00EC00DC00CC00BC00AC064
:1000300009C008C011241FBECFEFD4E0DEBFCDBF82
:1000400002D081C0DDCF27D03DD018B888B18561FE
:1000500088B98AB18C618AB9239A2B9AC2E3D0E01D
:1000600084E064D0182F85E061D0111102C088238C
:1000700049F0D0938900C0938800D0938B00C0933F
:100080008A00EECF109289001092880010928B00A7
:1000900010928A00E5CF84B1866084B9E0E8F0E090
:1000A000808180688083808180628083808181609C
:1000B0008083E1E8F0E080818860808380818160D6
:1000C000808308958AB18F718AB98BB1806E8BB9A4
:1000D00084B18E7084B985B1816F85B9089563B19B
:1000E00083B153B143B139B129B199B173B18071C1
:1000F00086958695869565FB662760F9862B5074F4
:1001000052955F70852B407842954F70842B3072EA
:100110003695832B20742695822B90789695892B83
:1001200090E8799F90011124822B0895CF93C82FD6
:10013000D6DFC15021E030E001C0220FCA95EAF7B6
:0A0140008223CF910895F894FFCFB9
:00000001FF
